:100000000A128A11FC2F00308A000408840A820731
:1000100000340A34153400341E3401341F341134D2
:100020001F340234043400341E3401341F341134BC
:100030001F340034113411340B3406340C341A34A8
:100040000034993420342034203454345234003471
:100050004E342034423401342034543402342034B9
:10006000203420342034503457344D342D34663409
:100070003D3438344B3448347A342D3444343D34B0
:1000800036343034253420342034203420342034A5
:100090004D344F34443455344C3420344334433499
:1000A000503420342034203420342034003444347C
:1000B00048344D3454343134353442342D343134B1
:1000C000393434343834363439343034313400341B
:100A0A00FC007C080A128A112E260800FD007D08C7
:100A1A0084000A128A1103200A128A11003A031961
:100A2A0008007D0884000A128A1103200A128A111A
:100A3A000A128A112E260A128A110130FC007C0839
:100A4A00FD070C2D83120313A2007030FD007D08F0
:100A5A00A000013083120313A207FF30220784008B
:100A6A000A128A1103200A128A11FD007D08A100C8
:100A7A0021080319080021080A128A1105250A12F9
:100A8A008A112E2D831603178801890107308316D0
:100A9A00031386008312031386018316031381133B
:100AAA00073095000A128A1163270A128A110A125C
:100ABA008A11CD260A128A110A128A117A260A1274
:100ACA008A115C2DF80076080319702D4030F70062
:100ADA007708F900712DF9017808F7007708F90706
:100AEA0079088038F7007708F30000300A128A1173
:100AFA00B9250A128A110A128A1189250A128A113B
:100B0A00003A03190800802D831603130816881665
:100B1A000817881783120313081588100630F00087
:100B2A00F00B952D00008312031388150630F00090
:100B3A00F00B9D2D0000003083120313881B013037
:100B4A00F10088110630F000F00BA92D0000831285
:100B5A00031388150630F000F00BB12D0000831244
:100B6A000313881171080800F5008316031308128D
:100B7A0088120813881375080319C72D83120313E3
:100B8A008814CA2D8312031388100630F400F40B5C
:100B9A00CC2D00008312031308110630F400F40B65
:100BAA00D42D00008312031388117308F400043053
:100BBA000310F40CFF3E031DDD2D74080A128A117E
:100BCA00EE250A128A1173080F390A128A11EE25C4
:100BDA000800F100831603130812881208138813F9
:100BEA007108F0007008F200721CFF2D83120313C3
:100BFA000816022E831203130812F21C082E8312FF
:100C0A00031388160B2E831203138812721D112EDA
:100C1A00831203130817142E831203130813F21DE9
:100C2A001A2E8312031388171D2E83120313881397
:100C3A000630F000F00B1F2E0000831203138815F4
:100C4A000630F000F00B272E0000831203138811E0
:100C5A000800FB006E2EF301F30A00300A128A1113
:100C6A00B9250A128A110A128A1189250A128A11C9
:100C7A00003A03190800382EF601F60A00300A1263
:100C8A008A11672508001030FA007A08F30000304C
:100C9A000A128A11B9250A128A110A128A11892599
:100CAA000A128A11003A03190800522E7B08FA0028
:100CBA007A08F30001300A128A11B9250A128A1138
:100CCA000A128A1189250A128A11003A03190800A0
:100CDA00652E7B08083A0319482E023A0319412E59
:100CEA00063A0319302E5B2E080083120313861866
:100CFA000800073083120313A4007C30A300A30B5F
:100D0A00842EA40B842E0000831203138618080075
:100D1A00073083120313A4007C30A300A30B932E85
:100D2A00A40B932E00008316031387148312031354
:100D3A0091017C308316031392004B308312031304
:100D4A009B000C309D009D121D1283160313871001
:100D5A008312031392011215F60100300A128A1146
:100D6A0067250A128A113C300A128A1127250A12AB
:100D7A008A11F601F60A00300A128A1167250A1248
:100D8A008A112B300A128A110B250A128A11892E0E
:100D9A008312031306180800073083120313A400F2
:100DAA007C30A300A30BD72EA40BD72E00008312EE
:100DBA00031306180800073083120313A4007C30BB
:100DCA00A300A30BE62EA40BE62E00008312031346
:100DDA00A5014030A3002308F30000300A128A114B
:100DEA00B9250A128A110A128A1189250A128A1148
:100DFA00003A0319222FF82E831203132508013E05
:100E0A0084000A128A1103200A128A11A3002308F5
:100E1A00F30001300A128A11B9250A128A110A123C
:100E2A008A1189250A128A11003A031D142F0130EA
:100E3A0083120313A3002308A507831203132508AB
:100E4A00013E84000A128A1103200A128A11993A71
:100E5A00031D012FF60100300A128A1167250A12B2
:100E6A008A1183120313A501113025020318542F86
:100E7A0025081A3E84000A128A1103200A128A11CE
:100E8A000A128A112E260A128A11013083120313BA
:100E9A00A3002308A50711302502031C3D2FF601E4
:100EAA00F60A00300A128A1167250A128A114F308F
:100EBA000A128A1127250A128A11DC2E83160313B5
:100ECA008811881008110812881208138813143020
:100EDA00F7007930F600F60B702FF70B702F752F8D
:100EEA008312031388100811881103300A128A1119
:100EFA00EE250A128A110D30F700FB30F600F60BC8
:100F0A00842FF70B842F892F03300A128A11EE25BA
:100F1A000A128A110D30F700FB30F600F60B932FF8
:100F2A00F70B932F982F03300A128A11EE250A1213
:100F3A008A110D30F700FB30F600F60BA22FF70BE3
:100F4A00A22FA72F02300A128A11EE250A128A113D
:100F5A000A128A1189250A128A11003A031DAD2F35
:100F6A002830F6007608F30000300A128A11B925F3
:100F7A000A128A110A128A1189250A128A11003A5A
:100F8A00031DBF2F0C30F6007608F30000300A125A
:100F9A008A11B9250A128A110A128A1189250A1296
:100FAA008A11003A031DD12FF301F30A00300A1205
:100FBA008A11B9250A128A110A128A1189250A1276
:100FCA008A11003A031DE12F0630F6007608F30075
:100FDA0000300A128A11B9250A128A110A128A11D4
:100FEA0089250A128A11003A03190800F32F83018E
:060FFA000A128A11472DC6
:04400E00F2E0FFFFDE
:00000001FF
